{
  "_format": "hh-sol-artifact-1",
  "contractName": "Domains",
  "sourceName": "contracts/Domains.sol",
  "abi": [
    {
      "inputs": [
        {
          "internalType": "string",
          "name": "_dotSomething",
          "type": "string"
        }
      ],
      "stateMutability": "payable",
      "type": "constructor"
    },
    {
      "inputs": [],
      "name": "AlreadyRegistered",
      "type": "error"
    },
    {
      "inputs": [
        {
          "internalType": "string",
          "name": "name",
          "type": "string"
        }
      ],
      "name": "InvalidName",
      "type": "error"
    },
    {
      "inputs": [],
      "name": "Unauthorized",
      "type": "error"
    },
    {
      "anonymous": false,
      "inputs": [
        {
          "indexed": true,
          "internalType": "address",
          "name": "owner",
          "type": "address"
        },
        {
          "indexed": true,
          "internalType": "address",
          "name": "approved",
          "type": "address"
        },
        {
          "indexed": true,
          "internalType": "uint256",
          "name": "tokenId",
          "type": "uint256"
        }
      ],
      "name": "Approval",
      "type": "event"
    },
    {
      "anonymous": false,
      "inputs": [
        {
          "indexed": true,
          "internalType": "address",
          "name": "owner",
          "type": "address"
        },
        {
          "indexed": true,
          "internalType": "address",
          "name": "operator",
          "type": "address"
        },
        {
          "indexed": false,
          "internalType": "bool",
          "name": "approved",
          "type": "bool"
        }
      ],
      "name": "ApprovalForAll",
      "type": "event"
    },
    {
      "anonymous": false,
      "inputs": [
        {
          "indexed": true,
          "internalType": "address",
          "name": "from",
          "type": "address"
        },
        {
          "indexed": true,
          "internalType": "address",
          "name": "to",
          "type": "address"
        },
        {
          "indexed": true,
          "internalType": "uint256",
          "name": "tokenId",
          "type": "uint256"
        }
      ],
      "name": "Transfer",
      "type": "event"
    },
    {
      "inputs": [
        {
          "internalType": "address",
          "name": "to",
          "type": "address"
        },
        {
          "internalType": "uint256",
          "name": "tokenId",
          "type": "uint256"
        }
      ],
      "name": "approve",
      "outputs": [],
      "stateMutability": "nonpayable",
      "type": "function"
    },
    {
      "inputs": [
        {
          "internalType": "address",
          "name": "owner",
          "type": "address"
        }
      ],
      "name": "balanceOf",
      "outputs": [
        {
          "internalType": "uint256",
          "name": "",
          "type": "uint256"
        }
      ],
      "stateMutability": "view",
      "type": "function"
    },
    {
      "inputs": [
        {
          "internalType": "string",
          "name": "",
          "type": "string"
        }
      ],
      "name": "domains",
      "outputs": [
        {
          "internalType": "address",
          "name": "",
          "type": "address"
        }
      ],
      "stateMutability": "view",
      "type": "function"
    },
    {
      "inputs": [],
      "name": "dotSomething",
      "outputs": [
        {
          "internalType": "string",
          "name": "",
          "type": "string"
        }
      ],
      "stateMutability": "view",
      "type": "function"
    },
    {
      "inputs": [
        {
          "internalType": "string",
          "name": "name",
          "type": "string"
        }
      ],
      "name": "getAddress",
      "outputs": [
        {
          "internalType": "address",
          "name": "",
          "type": "address"
        }
      ],
      "stateMutability": "view",
      "type": "function"
    },
    {
      "inputs": [],
      "name": "getAllNames",
      "outputs": [
        {
          "internalType": "string[]",
          "name": "",
          "type": "string[]"
        }
      ],
      "stateMutability": "view",
      "type": "function"
    },
    {
      "inputs": [
        {
          "internalType": "uint256",
          "name": "tokenId",
          "type": "uint256"
        }
      ],
      "name": "getApproved",
      "outputs": [
        {
          "internalType": "address",
          "name": "",
          "type": "address"
        }
      ],
      "stateMutability": "view",
      "type": "function"
    },
    {
      "inputs": [
        {
          "internalType": "string",
          "name": "name",
          "type": "string"
        }
      ],
      "name": "getRecord",
      "outputs": [
        {
          "internalType": "string",
          "name": "",
          "type": "string"
        }
      ],
      "stateMutability": "view",
      "type": "function"
    },
    {
      "inputs": [
        {
          "internalType": "address",
          "name": "owner",
          "type": "address"
        },
        {
          "internalType": "address",
          "name": "operator",
          "type": "address"
        }
      ],
      "name": "isApprovedForAll",
      "outputs": [
        {
          "internalType": "bool",
          "name": "",
          "type": "bool"
        }
      ],
      "stateMutability": "view",
      "type": "function"
    },
    {
      "inputs": [],
      "name": "isOwner",
      "outputs": [
        {
          "internalType": "bool",
          "name": "",
          "type": "bool"
        }
      ],
      "stateMutability": "view",
      "type": "function"
    },
    {
      "inputs": [],
      "name": "name",
      "outputs": [
        {
          "internalType": "string",
          "name": "",
          "type": "string"
        }
      ],
      "stateMutability": "view",
      "type": "function"
    },
    {
      "inputs": [
        {
          "internalType": "uint256",
          "name": "",
          "type": "uint256"
        }
      ],
      "name": "names",
      "outputs": [
        {
          "internalType": "string",
          "name": "",
          "type": "string"
        }
      ],
      "stateMutability": "view",
      "type": "function"
    },
    {
      "inputs": [],
      "name": "owner",
      "outputs": [
        {
          "internalType": "address payable",
          "name": "",
          "type": "address"
        }
      ],
      "stateMutability": "view",
      "type": "function"
    },
    {
      "inputs": [
        {
          "internalType": "uint256",
          "name": "tokenId",
          "type": "uint256"
        }
      ],
      "name": "ownerOf",
      "outputs": [
        {
          "internalType": "address",
          "name": "",
          "type": "address"
        }
      ],
      "stateMutability": "view",
      "type": "function"
    },
    {
      "inputs": [
        {
          "internalType": "string",
          "name": "name",
          "type": "string"
        }
      ],
      "name": "price",
      "outputs": [
        {
          "internalType": "uint256",
          "name": "",
          "type": "uint256"
        }
      ],
      "stateMutability": "pure",
      "type": "function"
    },
    {
      "inputs": [
        {
          "internalType": "string",
          "name": "",
          "type": "string"
        }
      ],
      "name": "records",
      "outputs": [
        {
          "internalType": "string",
          "name": "",
          "type": "string"
        }
      ],
      "stateMutability": "view",
      "type": "function"
    },
    {
      "inputs": [
        {
          "internalType": "string",
          "name": "name",
          "type": "string"
        }
      ],
      "name": "register",
      "outputs": [],
      "stateMutability": "payable",
      "type": "function"
    },
    {
      "inputs": [
        {
          "internalType": "address",
          "name": "from",
          "type": "address"
        },
        {
          "internalType": "address",
          "name": "to",
          "type": "address"
        },
        {
          "internalType": "uint256",
          "name": "tokenId",
          "type": "uint256"
        }
      ],
      "name": "safeTransferFrom",
      "outputs": [],
      "stateMutability": "nonpayable",
      "type": "function"
    },
    {
      "inputs": [
        {
          "internalType": "address",
          "name": "from",
          "type": "address"
        },
        {
          "internalType": "address",
          "name": "to",
          "type": "address"
        },
        {
          "internalType": "uint256",
          "name": "tokenId",
          "type": "uint256"
        },
        {
          "internalType": "bytes",
          "name": "data",
          "type": "bytes"
        }
      ],
      "name": "safeTransferFrom",
      "outputs": [],
      "stateMutability": "nonpayable",
      "type": "function"
    },
    {
      "inputs": [
        {
          "internalType": "address",
          "name": "operator",
          "type": "address"
        },
        {
          "internalType": "bool",
          "name": "approved",
          "type": "bool"
        }
      ],
      "name": "setApprovalForAll",
      "outputs": [],
      "stateMutability": "nonpayable",
      "type": "function"
    },
    {
      "inputs": [
        {
          "internalType": "string",
          "name": "name",
          "type": "string"
        },
        {
          "internalType": "string",
          "name": "record",
          "type": "string"
        }
      ],
      "name": "setRecord",
      "outputs": [],
      "stateMutability": "nonpayable",
      "type": "function"
    },
    {
      "inputs": [
        {
          "internalType": "bytes4",
          "name": "interfaceId",
          "type": "bytes4"
        }
      ],
      "name": "supportsInterface",
      "outputs": [
        {
          "internalType": "bool",
          "name": "",
          "type": "bool"
        }
      ],
      "stateMutability": "view",
      "type": "function"
    },
    {
      "inputs": [],
      "name": "symbol",
      "outputs": [
        {
          "internalType": "string",
          "name": "",
          "type": "string"
        }
      ],
      "stateMutability": "view",
      "type": "function"
    },
    {
      "inputs": [
        {
          "internalType": "uint256",
          "name": "tokenId",
          "type": "uint256"
        }
      ],
      "name": "tokenURI",
      "outputs": [
        {
          "internalType": "string",
          "name": "",
          "type": "string"
        }
      ],
      "stateMutability": "view",
      "type": "function"
    },
    {
      "inputs": [
        {
          "internalType": "address",
          "name": "from",
          "type": "address"
        },
        {
          "internalType": "address",
          "name": "to",
          "type": "address"
        },
        {
          "internalType": "uint256",
          "name": "tokenId",
          "type": "uint256"
        }
      ],
      "name": "transferFrom",
      "outputs": [],
      "stateMutability": "nonpayable",
      "type": "function"
    },
    {
      "inputs": [
        {
          "internalType": "string",
          "name": "name",
          "type": "string"
        }
      ],
      "name": "valid",
      "outputs": [
        {
          "internalType": "bool",
          "name": "",
          "type": "bool"
        }
      ],
      "stateMutability": "pure",
      "type": "function"
    },
    {
      "inputs": [],
      "name": "withdraw",
      "outputs": [],
      "stateMutability": "nonpayable",
      "type": "function"
    }
  ],
  "bytecode": "0x608060405260405180610460016040528061043c81526020016200491c61043c9139600a908051906020019062000038929190620002c8565b506040518060400160405280600d81526020017f3c2f746578743e3c2f7376673e00000000000000000000000000000000000000815250600b908051906020019062000086929190620002c8565b5060405162004d5838038062004d588339818101604052810190620000ac919062000515565b6040518060400160405280601d81526020017f526567697374726f206465204e6f6d6573206520456e64657265636f730000008152506040518060400160405280600381526020017f524e450000000000000000000000000000000000000000000000000000000000815250816000908051906020019062000130929190620002c8565b50806001908051906020019062000149929190620002c8565b50505033600960006101000a81548173ffffffffffffffffffffffffffffffffffffffff021916908373ffffffffffffffffffffffffffffffffffffffff1602179055508060089080519060200190620001a5929190620002c8565b50620001f26040518060400160405280601881526020017f2573206e616d652073657276696365206465706c6f796573000000000000000081525082620001f960201b620019fb1760201c565b5062000663565b6200029b828260405160240162000212929190620005c3565b6040516020818303038152906040527f4b5c4277000000000000000000000000000000000000000000000000000000007bffffffffffffffffffffffffffffffffffffffffffffffffffffffff19166020820180517bffffffffffffffffffffffffffffffffffffffffffffffffffffffff83818316178352505050506200029f60201b60201c565b5050565b60008151905060006a636f6e736f6c652e6c6f679050602083016000808483855afa5050505050565b828054620002d6906200062d565b90600052602060002090601f016020900481019282620002fa576000855562000346565b82601f106200031557805160ff191683800117855562000346565b8280016001018555821562000346579182015b828111156200034557825182559160200191906001019062000328565b5b50905062000355919062000359565b5090565b5b80821115620003745760008160009055506001016200035a565b5090565b6000604051905090565b600080fd5b600080fd5b600080fd5b600080fd5b6000601f19601f8301169050919050565b7f4e487b7100000000000000000000000000000000000000000000000000000000600052604160045260246000fd5b620003e18262000396565b810181811067ffffffffffffffff82111715620004035762000402620003a7565b5b80604052505050565b60006200041862000378565b9050620004268282620003d6565b919050565b600067ffffffffffffffff821115620004495762000448620003a7565b5b620004548262000396565b9050602081019050919050565b60005b838110156200048157808201518184015260208101905062000464565b8381111562000491576000848401525b50505050565b6000620004ae620004a8846200042b565b6200040c565b905082815260208101848484011115620004cd57620004cc62000391565b5b620004da84828562000461565b509392505050565b600082601f830112620004fa57620004f96200038c565b5b81516200050c84826020860162000497565b91505092915050565b6000602082840312156200052e576200052d62000382565b5b600082015167ffffffffffffffff8111156200054f576200054e62000387565b5b6200055d84828501620004e2565b91505092915050565b600081519050919050565b600082825260208201905092915050565b60006200058f8262000566565b6200059b818562000571565b9350620005ad81856020860162000461565b620005b88162000396565b840191505092915050565b60006040820190508181036000830152620005df818562000582565b90508181036020830152620005f5818462000582565b90509392505050565b7f4e487b7100000000000000000000000000000000000000000000000000000000600052602260045260246000fd5b600060028204905060018216806200064657607f821691505b602082108114156200065d576200065c620005fe565b5b50919050565b6142a980620006736000396000f3fe60806040526004361061019c5760003560e01c806370a08231116100ec578063bf40fac11161008a578063e985e9c511610064578063e985e9c514610624578063f2c298be14610661578063fb825e5f1461067d578063fe2c6198146106a85761019c565b8063bf40fac114610581578063c1880a98146105be578063c87b56dd146105e75761019c565b806395d89b41116100c657806395d89b41146104c75780639791c097146104f2578063a22cb4651461052f578063b88d4fde146105585761019c565b806370a08231146104345780638da5cb5b146104715780638f32d59b1461049c5761019c565b8063264492351161015957806345ec939f1161013357806345ec939f146103525780634622ab031461037d578063541e771d146103ba5780636352211e146103f75761019c565b806326449235146102d55780633ccfd60b1461031257806342842e0e146103295761019c565b806301ffc9a7146101a157806306fdde03146101de578063081812fc14610209578063095ea7b31461024657806311dd88451461026f57806323b872dd146102ac575b600080fd5b3480156101ad57600080fd5b506101c860048036038101906101c39190612d0b565b6106e5565b6040516101d59190612d53565b60405180910390f35b3480156101ea57600080fd5b506101f36107c7565b6040516102009190612e07565b60405180910390f35b34801561021557600080fd5b50610230600480360381019061022b9190612e5f565b610859565b60405161023d9190612ecd565b60405180910390f35b34801561025257600080fd5b5061026d60048036038101906102689190612f14565b61089f565b005b34801561027b57600080fd5b5061029660048036038101906102919190612fb9565b6109b7565b6040516102a39190612e07565b60405180910390f35b3480156102b857600080fd5b506102d360048036038101906102ce9190613006565b610a6a565b005b3480156102e157600080fd5b506102fc60048036038101906102f79190613189565b610aca565b6040516103099190612ecd565b60405180910390f35b34801561031e57600080fd5b50610327610b13565b005b34801561033557600080fd5b50610350600480360381019061034b9190613006565b610bd9565b005b34801561035e57600080fd5b50610367610bf9565b6040516103749190612e07565b60405180910390f35b34801561038957600080fd5b506103a4600480360381019061039f9190612e5f565b610c87565b6040516103b19190612e07565b60405180910390f35b3480156103c657600080fd5b506103e160048036038101906103dc9190613189565b610d27565b6040516103ee9190612e07565b60405180910390f35b34801561040357600080fd5b5061041e60048036038101906104199190612e5f565b610ddd565b60405161042b9190612ecd565b60405180910390f35b34801561044057600080fd5b5061045b600480360381019061045691906131d2565b610e8f565b604051610468919061320e565b60405180910390f35b34801561047d57600080fd5b50610486610f47565b604051610493919061324a565b60405180910390f35b3480156104a857600080fd5b506104b1610f6d565b6040516104be9190612d53565b60405180910390f35b3480156104d357600080fd5b506104dc610fc5565b6040516104e99190612e07565b60405180910390f35b3480156104fe57600080fd5b5061051960048036038101906105149190612fb9565b611057565b6040516105269190612d53565b60405180910390f35b34801561053b57600080fd5b5061055660048036038101906105519190613291565b61110b565b005b34801561056457600080fd5b5061057f600480360381019061057a9190613372565b611121565b005b34801561058d57600080fd5b506105a860048036038101906105a39190612fb9565b611183565b6040516105b59190612ecd565b60405180910390f35b3480156105ca57600080fd5b506105e560048036038101906105e091906133f5565b6111ce565b005b3480156105f357600080fd5b5061060e60048036038101906106099190612e5f565b6112a9565b60405161061b9190612e07565b60405180910390f35b34801561063057600080fd5b5061064b60048036038101906106469190613476565b6113bc565b6040516106589190612d53565b60405180910390f35b61067b60048036038101906106769190612fb9565b611450565b005b34801561068957600080fd5b50610692611795565b60405161069f91906135c2565b60405180910390f35b3480156106b457600080fd5b506106cf60048036038101906106ca9190613189565b611973565b6040516106dc919061320e565b60405180910390f35b60007f80ac58cd000000000000000000000000000000000000000000000000000000007bffffffffffffffffffffffffffffffffffffffffffffffffffffffff1916827bffffffffffffffffffffffffffffffffffffffffffffffffffffffff191614806107b057507f5b5e139f000000000000000000000000000000000000000000000000000000007bffffffffffffffffffffffffffffffffffffffffffffffffffffffff1916827bffffffffffffffffffffffffffffffffffffffffffffffffffffffff1916145b806107c057506107bf82611a97565b5b9050919050565b6060600080546107d690613613565b80601f016020809104026020016040519081016040528092919081815260200182805461080290613613565b801561084f5780601f106108245761010080835404028352916020019161084f565b820191906000526020600020905b81548152906001019060200180831161083257829003601f168201915b5050505050905090565b600061086482611b01565b6004600083815260200190815260200160002060009054906101000a900473ffffffffffffffffffffffffffffffffffffffff169050919050565b60006108aa82610ddd565b90508073ffffffffffffffffffffffffffffffffffffffff168373ffffffffffffffffffffffffffffffffffffffff16141561091b576040517f08c379a0000000000000000000000000000000000000000000000000000000008152600401610912906136b7565b60405180910390fd5b8073ffffffffffffffffffffffffffffffffffffffff1661093a611b4c565b73ffffffffffffffffffffffffffffffffffffffff161480610969575061096881610963611b4c565b6113bc565b5b6109a8576040517f08c379a000000000000000000000000000000000000000000000000000000000815260040161099f90613749565b60405180910390fd5b6109b28383611b54565b505050565b6060600d83836040516109cb929190613799565b908152602001604051809103902080546109e490613613565b80601f0160208091040260200160405190810160405280929190818152602001828054610a1090613613565b8015610a5d5780601f10610a3257610100808354040283529160200191610a5d565b820191906000526020600020905b815481529060010190602001808311610a4057829003601f168201915b5050505050905092915050565b610a7b610a75611b4c565b82611c0d565b610aba576040517f08c379a0000000000000000000000000000000000000000000000000000000008152600401610ab190613824565b60405180910390fd5b610ac5838383611ca2565b505050565b600c818051602081018201805184825260208301602085012081835280955050505050506000915054906101000a900473ffffffffffffffffffffffffffffffffffffffff1681565b610b1b610f6d565b610b2457600080fd5b600047905060003373ffffffffffffffffffffffffffffffffffffffff1682604051610b4f90613875565b60006040518083038185875af1925050503d8060008114610b8c576040519150601f19603f3d011682016040523d82523d6000602084013e610b91565b606091505b5050905080610bd5576040517f08c379a0000000000000000000000000000000000000000000000000000000008152600401610bcc906138d6565b60405180910390fd5b5050565b610bf483838360405180602001604052806000815250611121565b505050565b60088054610c0690613613565b80601f0160208091040260200160405190810160405280929190818152602001828054610c3290613613565b8015610c7f5780601f10610c5457610100808354040283529160200191610c7f565b820191906000526020600020905b815481529060010190602001808311610c6257829003601f168201915b505050505081565b600e6020528060005260406000206000915090508054610ca690613613565b80601f0160208091040260200160405190810160405280929190818152602001828054610cd290613613565b8015610d1f5780601f10610cf457610100808354040283529160200191610d1f565b820191906000526020600020905b815481529060010190602001808311610d0257829003601f168201915b505050505081565b600d818051602081018201805184825260208301602085012081835280955050505050506000915090508054610d5c90613613565b80601f0160208091040260200160405190810160405280929190818152602001828054610d8890613613565b8015610dd55780601f10610daa57610100808354040283529160200191610dd5565b820191906000526020600020905b815481529060010190602001808311610db857829003601f168201915b505050505081565b6000806002600084815260200190815260200160002060009054906101000a900473ffffffffffffffffffffffffffffffffffffffff169050600073ffffffffffffffffffffffffffffffffffffffff168173ffffffffffffffffffffffffffffffffffffffff161415610e86576040517f08c379a0000000000000000000000000000000000000000000000000000000008152600401610e7d90613942565b60405180910390fd5b80915050919050565b60008073ffffffffffffffffffffffffffffffffffffffff168273ffffffffffffffffffffffffffffffffffffffff161415610f00576040517f08c379a0000000000000000000000000000000000000000000000000000000008152600401610ef7906139d4565b60405180910390fd5b600360008373ffffffffffffffffffffffffffffffffffffffff1673ffffffffffffffffffffffffffffffffffffffff168152602001908152602001600020549050919050565b600960009054906101000a900473ffffffffffffffffffffffffffffffffffffffff1681565b6000600960009054906101000a900473ffffffffffffffffffffffffffffffffffffffff1673ffffffffffffffffffffffffffffffffffffffff163373ffffffffffffffffffffffffffffffffffffffff1614905090565b606060018054610fd490613613565b80601f016020809104026020016040519081016040528092919081815260200182805461100090613613565b801561104d5780601f106110225761010080835404028352916020019161104d565b820191906000526020600020905b81548152906001019060200180831161103057829003601f168201915b5050505050905090565b600060036110a884848080601f016020809104026020016040519081016040528093929190818152602001838380828437600081840152601f19601f82011690508083019250505050505050611f09565b101580156111035750601061110084848080601f016020809104026020016040519081016040528093929190818152602001838380828437600081840152601f19601f82011690508083019250505050505050611f09565b11155b905092915050565b61111d611116611b4c565b83836120be565b5050565b61113261112c611b4c565b83611c0d565b611171576040517f08c379a000000000000000000000000000000000000000000000000000000000815260040161116890613824565b60405180910390fd5b61117d8484848461222b565b50505050565b6000600c8383604051611197929190613799565b908152602001604051809103902060009054906101000a900473ffffffffffffffffffffffffffffffffffffffff16905092915050565b600c84846040516111e0929190613799565b908152602001604051809103902060009054906101000a900473ffffffffffffffffffffffffffffffffffffffff1673ffffffffffffffffffffffffffffffffffffffff163373ffffffffffffffffffffffffffffffffffffffff1614611273576040517f82b4290000000000000000000000000000000000000000000000000000000000815260040160405180910390fd5b8181600d8686604051611287929190613799565b908152602001604051809103902091906112a2929190612b76565b5050505050565b60606112b482611b01565b60006006600084815260200190815260200160002080546112d490613613565b80601f016020809104026020016040519081016040528092919081815260200182805461130090613613565b801561134d5780601f106113225761010080835404028352916020019161134d565b820191906000526020600020905b81548152906001019060200180831161133057829003601f168201915b50505050509050600061135e612287565b90506000815114156113745781925050506113b7565b6000825111156113a9578082604051602001611391929190613a25565b604051602081830303815290604052925050506113b7565b6113b28461229e565b925050505b919050565b6000600560008473ffffffffffffffffffffffffffffffffffffffff1673ffffffffffffffffffffffffffffffffffffffff16815260200190815260200160002060008373ffffffffffffffffffffffffffffffffffffffff1673ffffffffffffffffffffffffffffffffffffffff16815260200190815260200160002060009054906101000a900460ff16905092915050565b600073ffffffffffffffffffffffffffffffffffffffff16600c838360405161147a929190613799565b908152602001604051809103902060009054906101000a900473ffffffffffffffffffffffffffffffffffffffff1673ffffffffffffffffffffffffffffffffffffffff16146114f6576040517f3a81d6fc00000000000000000000000000000000000000000000000000000000815260040160405180910390fd5b6115008282611057565b6115435781816040517f7f19f48d00000000000000000000000000000000000000000000000000000000815260040161153a929190613a76565b60405180910390fd5b600061159283838080601f016020809104026020016040519081016040528093929190818152602001838380828437600081840152601f19601f82011690508083019250505050505050611973565b9050803410156115d7576040517f08c379a00000000000000000000000000000000000000000000000000000000081526004016115ce90613ae6565b60405180910390fd5b60006115e36007612306565b90506116d760405180606001604052806031815260200161420e6031913985858080601f016020809104026020016040519081016040528093929190818152602001838380828437600081840152601f19601f820116905080830192505050505050506008805461165390613613565b80601f016020809104026020016040519081016040528092919081815260200182805461167f90613613565b80156116cc5780601f106116a1576101008083540402835291602001916116cc565b820191906000526020600020905b8154815290600101906020018083116116af57829003601f168201915b505050505084612314565b6116e133826123b6565b6117038160405180606001604052806035815260200161423f603591396123d4565b33600c8585604051611716929190613799565b908152602001604051809103902060006101000a81548173ffffffffffffffffffffffffffffffffffffffff021916908373ffffffffffffffffffffffffffffffffffffffff1602179055508383600e60008481526020019081526020016000209190611784929190612b76565b5061178f6007612448565b50505050565b60606117d56040518060400160405280601f81526020017f47657474696e6720616c6c206e616d65732066726f6d20636f6e74726163740081525061245e565b60006117e16007612306565b67ffffffffffffffff8111156117fa576117f961305e565b5b60405190808252806020026020018201604052801561182d57816020015b60608152602001906001900390816118185790505b50905060005b61183d6007612306565b81101561196b57600e6000828152602001908152602001600020805461186290613613565b80601f016020809104026020016040519081016040528092919081815260200182805461188e90613613565b80156118db5780601f106118b0576101008083540402835291602001916118db565b820191906000526020600020905b8154815290600101906020018083116118be57829003601f168201915b50505050508282815181106118f3576118f2613b06565b5b60200260200101819052506119586040518060400160405280601781526020017f4e616d6520666f7220746f6b656e2025642069732025730000000000000000008152508284848151811061194b5761194a613b06565b5b60200260200101516124f7565b808061196390613b64565b915050611833565b508091505090565b60008061197f83611f09565b90506000811161198e57600080fd5b600381116119a6576611c37937e080009150506119f6565b600481116119be5766016bcc41e900009150506119f6565b600581116119d557651b48eb57e0009150506119f6565b600681116119ec576501d1a94a20009150506119f6565b64174876e8009150505b919050565b611a938282604051602401611a11929190613bad565b6040516020818303038152906040527f4b5c4277000000000000000000000000000000000000000000000000000000007bffffffffffffffffffffffffffffffffffffffffffffffffffffffff19166020820180517bffffffffffffffffffffffffffffffffffffffffffffffffffffffff8381831617835250505050612596565b5050565b60007f01ffc9a7000000000000000000000000000000000000000000000000000000007bffffffffffffffffffffffffffffffffffffffffffffffffffffffff1916827bffffffffffffffffffffffffffffffffffffffffffffffffffffffff1916149050919050565b611b0a816125bf565b611b49576040517f08c379a0000000000000000000000000000000000000000000000000000000008152600401611b4090613942565b60405180910390fd5b50565b600033905090565b816004600083815260200190815260200160002060006101000a81548173ffffffffffffffffffffffffffffffffffffffff021916908373ffffffffffffffffffffffffffffffffffffffff160217905550808273ffffffffffffffffffffffffffffffffffffffff16611bc783610ddd565b73ffffffffffffffffffffffffffffffffffffffff167f8c5be1e5ebec7d5bd14f71427d1e84f3dd0314c0f7b2291e5b200ac8c7c3b92560405160405180910390a45050565b600080611c1983610ddd565b90508073ffffffffffffffffffffffffffffffffffffffff168473ffffffffffffffffffffffffffffffffffffffff161480611c5b5750611c5a81856113bc565b5b80611c9957508373ffffffffffffffffffffffffffffffffffffffff16611c8184610859565b73ffffffffffffffffffffffffffffffffffffffff16145b91505092915050565b8273ffffffffffffffffffffffffffffffffffffffff16611cc282610ddd565b73ffffffffffffffffffffffffffffffffffffffff1614611d18576040517f08c379a0000000000000000000000000000000000000000000000000000000008152600401611d0f90613c56565b60405180910390fd5b600073ffffffffffffffffffffffffffffffffffffffff168273ffffffffffffffffffffffffffffffffffffffff161415611d88576040517f08c379a0000000000000000000000000000000000000000000000000000000008152600401611d7f90613ce8565b60405180910390fd5b611d9383838361262b565b611d9e600082611b54565b6001600360008573ffffffffffffffffffffffffffffffffffffffff1673ffffffffffffffffffffffffffffffffffffffff1681526020019081526020016000206000828254611dee9190613d08565b925050819055506001600360008473ffffffffffffffffffffffffffffffffffffffff1673ffffffffffffffffffffffffffffffffffffffff1681526020019081526020016000206000828254611e459190613d3c565b92505081905550816002600083815260200190815260200160002060006101000a81548173ffffffffffffffffffffffffffffffffffffffff021916908373ffffffffffffffffffffffffffffffffffffffff160217905550808273ffffffffffffffffffffffffffffffffffffffff168473ffffffffffffffffffffffffffffffffffffffff167fddf252ad1be2c89b69c2b068fc378daa952ba7f163c4a11628f55a4df523b3ef60405160405180910390a4611f04838383612630565b505050565b60008060008084519050600092505b808210156120b3576000858381518110611f3557611f34613b06565b5b602001015160f81c60f81b9050608060f81b817effffffffffffffffffffffffffffffffffffffffffffffffffffffffffffff19161015611f8457600183611f7d9190613d3c565b925061209f565b60e060f81b817effffffffffffffffffffffffffffffffffffffffffffffffffffffffffffff19161015611fc657600283611fbf9190613d3c565b925061209e565b60f060f81b817effffffffffffffffffffffffffffffffffffffffffffffffffffffffffffff19161015612008576003836120019190613d3c565b925061209d565b60f8801b817effffffffffffffffffffffffffffffffffffffffffffffffffffffffffffff19161015612049576004836120429190613d3c565b925061209c565b60fc60f81b817effffffffffffffffffffffffffffffffffffffffffffffffffffffffffffff1916101561208b576005836120849190613d3c565b925061209b565b6006836120989190613d3c565b92505b5b5b5b5b5082806120ab90613b64565b935050611f18565b829350505050919050565b8173ffffffffffffffffffffffffffffffffffffffff168373ffffffffffffffffffffffffffffffffffffffff16141561212d576040517f08c379a000000000000000000000000000000000000000000000000000000000815260040161212490613dde565b60405180910390fd5b80600560008573ffffffffffffffffffffffffffffffffffffffff1673ffffffffffffffffffffffffffffffffffffffff16815260200190815260200160002060008473ffffffffffffffffffffffffffffffffffffffff1673ffffffffffffffffffffffffffffffffffffffff16815260200190815260200160002060006101000a81548160ff0219169083151502179055508173ffffffffffffffffffffffffffffffffffffffff168373ffffffffffffffffffffffffffffffffffffffff167f17307eab39ab6107e8899845ad3d59bd9653f200f220920489ca2b5937696c318360405161221e9190612d53565b60405180910390a3505050565b612236848484611ca2565b61224284848484612635565b612281576040517f08c379a000000000000000000000000000000000000000000000000000000000815260040161227890613e70565b60405180910390fd5b50505050565b606060405180602001604052806000815250905090565b60606122a982611b01565b60006122b3612287565b905060008151116122d357604051806020016040528060008152506122fe565b806122dd846127bd565b6040516020016122ee929190613a25565b6040516020818303038152906040525b915050919050565b600081600001549050919050565b6123b08484848460405160240161232e9493929190613e90565b6040516020818303038152906040527f8eafb02b000000000000000000000000000000000000000000000000000000007bffffffffffffffffffffffffffffffffffffffffffffffffffffffff19166020820180517bffffffffffffffffffffffffffffffffffffffffffffffffffffffff8381831617835250505050612596565b50505050565b6123d082826040518060200160405280600081525061291e565b5050565b6123dd826125bf565b61241c576040517f08c379a000000000000000000000000000000000000000000000000000000000815260040161241390613f5c565b60405180910390fd5b80600660008481526020019081526020016000209080519060200190612443929190612bfc565b505050565b6001816000016000828254019250508190555050565b6124f4816040516024016124729190612e07565b6040516020818303038152906040527f41304fac000000000000000000000000000000000000000000000000000000007bffffffffffffffffffffffffffffffffffffffffffffffffffffffff19166020820180517bffffffffffffffffffffffffffffffffffffffffffffffffffffffff8381831617835250505050612596565b50565b61259183838360405160240161250f93929190613f7c565b6040516020818303038152906040527f5970e089000000000000000000000000000000000000000000000000000000007bffffffffffffffffffffffffffffffffffffffffffffffffffffffff19166020820180517bffffffffffffffffffffffffffffffffffffffffffffffffffffffff8381831617835250505050612596565b505050565b60008151905060006a636f6e736f6c652e6c6f679050602083016000808483855afa5050505050565b60008073ffffffffffffffffffffffffffffffffffffffff166002600084815260200190815260200160002060009054906101000a900473ffffffffffffffffffffffffffffffffffffffff1673ffffffffffffffffffffffffffffffffffffffff1614159050919050565b505050565b505050565b60006126568473ffffffffffffffffffffffffffffffffffffffff16612979565b156127b0578373ffffffffffffffffffffffffffffffffffffffff1663150b7a0261267f611b4c565b8786866040518563ffffffff1660e01b81526004016126a19493929190614016565b6020604051808303816000875af19250505080156126dd57506040513d601f19601f820116820180604052508101906126da9190614077565b60015b612760573d806000811461270d576040519150601f19603f3d011682016040523d82523d6000602084013e612712565b606091505b50600081511415612758576040517f08c379a000000000000000000000000000000000000000000000000000000000815260040161274f90613e70565b60405180910390fd5b805181602001fd5b63150b7a0260e01b7bffffffffffffffffffffffffffffffffffffffffffffffffffffffff1916817bffffffffffffffffffffffffffffffffffffffffffffffffffffffff1916149150506127b5565b600190505b949350505050565b60606000821415612805576040518060400160405280600181526020017f30000000000000000000000000000000000000000000000000000000000000008152509050612919565b600082905060005b6000821461283757808061282090613b64565b915050600a8261283091906140d3565b915061280d565b60008167ffffffffffffffff8111156128535761285261305e565b5b6040519080825280601f01601f1916602001820160405280156128855781602001600182028036833780820191505090505b5090505b600085146129125760018261289e9190613d08565b9150600a856128ad9190614104565b60306128b99190613d3c565b60f81b8183815181106128cf576128ce613b06565b5b60200101907effffffffffffffffffffffffffffffffffffffffffffffffffffffffffffff1916908160001a905350600a8561290b91906140d3565b9450612889565b8093505050505b919050565b612928838361299c565b6129356000848484612635565b612974576040517f08c379a000000000000000000000000000000000000000000000000000000000815260040161296b90613e70565b60405180910390fd5b505050565b6000808273ffffffffffffffffffffffffffffffffffffffff163b119050919050565b600073ffffffffffffffffffffffffffffffffffffffff168273ffffffffffffffffffffffffffffffffffffffff161415612a0c576040517f08c379a0000000000000000000000000000000000000000000000000000000008152600401612a0390614181565b60405180910390fd5b612a15816125bf565b15612a55576040517f08c379a0000000000000000000000000000000000000000000000000000000008152600401612a4c906141ed565b60405180910390fd5b612a616000838361262b565b6001600360008473ffffffffffffffffffffffffffffffffffffffff1673ffffffffffffffffffffffffffffffffffffffff1681526020019081526020016000206000828254612ab19190613d3c565b92505081905550816002600083815260200190815260200160002060006101000a81548173ffffffffffffffffffffffffffffffffffffffff021916908373ffffffffffffffffffffffffffffffffffffffff160217905550808273ffffffffffffffffffffffffffffffffffffffff16600073ffffffffffffffffffffffffffffffffffffffff167fddf252ad1be2c89b69c2b068fc378daa952ba7f163c4a11628f55a4df523b3ef60405160405180910390a4612b7260008383612630565b5050565b828054612b8290613613565b90600052602060002090601f016020900481019282612ba45760008555612beb565b82601f10612bbd57803560ff1916838001178555612beb565b82800160010185558215612beb579182015b82811115612bea578235825591602001919060010190612bcf565b5b509050612bf89190612c82565b5090565b828054612c0890613613565b90600052602060002090601f016020900481019282612c2a5760008555612c71565b82601f10612c4357805160ff1916838001178555612c71565b82800160010185558215612c71579182015b82811115612c70578251825591602001919060010190612c55565b5b509050612c7e9190612c82565b5090565b5b80821115612c9b576000816000905550600101612c83565b5090565b6000604051905090565b600080fd5b600080fd5b60007fffffffff0000000000000000000000000000000000000000000000000000000082169050919050565b612ce881612cb3565b8114612cf357600080fd5b50565b600081359050612d0581612cdf565b92915050565b600060208284031215612d2157612d20612ca9565b5b6000612d2f84828501612cf6565b91505092915050565b60008115159050919050565b612d4d81612d38565b82525050565b6000602082019050612d686000830184612d44565b92915050565b600081519050919050565b600082825260208201905092915050565b60005b83811015612da8578082015181840152602081019050612d8d565b83811115612db7576000848401525b50505050565b6000601f19601f8301169050919050565b6000612dd982612d6e565b612de38185612d79565b9350612df3818560208601612d8a565b612dfc81612dbd565b840191505092915050565b60006020820190508181036000830152612e218184612dce565b905092915050565b6000819050919050565b612e3c81612e29565b8114612e4757600080fd5b50565b600081359050612e5981612e33565b92915050565b600060208284031215612e7557612e74612ca9565b5b6000612e8384828501612e4a565b91505092915050565b600073ffffffffffffffffffffffffffffffffffffffff82169050919050565b6000612eb782612e8c565b9050919050565b612ec781612eac565b82525050565b6000602082019050612ee26000830184612ebe565b92915050565b612ef181612eac565b8114612efc57600080fd5b50565b600081359050612f0e81612ee8565b92915050565b60008060408385031215612f2b57612f2a612ca9565b5b6000612f3985828601612eff565b9250506020612f4a85828601612e4a565b9150509250929050565b600080fd5b600080fd5b600080fd5b60008083601f840112612f7957612f78612f54565b5b8235905067ffffffffffffffff811115612f9657612f95612f59565b5b602083019150836001820283011115612fb257612fb1612f5e565b5b9250929050565b60008060208385031215612fd057612fcf612ca9565b5b600083013567ffffffffffffffff811115612fee57612fed612cae565b5b612ffa85828601612f63565b92509250509250929050565b60008060006060848603121561301f5761301e612ca9565b5b600061302d86828701612eff565b935050602061303e86828701612eff565b925050604061304f86828701612e4a565b9150509250925092565b600080fd5b7f4e487b7100000000000000000000000000000000000000000000000000000000600052604160045260246000fd5b61309682612dbd565b810181811067ffffffffffffffff821117156130b5576130b461305e565b5b80604052505050565b60006130c8612c9f565b90506130d4828261308d565b919050565b600067ffffffffffffffff8211156130f4576130f361305e565b5b6130fd82612dbd565b9050602081019050919050565b82818337600083830152505050565b600061312c613127846130d9565b6130be565b90508281526020810184848401111561314857613147613059565b5b61315384828561310a565b509392505050565b600082601f8301126131705761316f612f54565b5b8135613180848260208601613119565b91505092915050565b60006020828403121561319f5761319e612ca9565b5b600082013567ffffffffffffffff8111156131bd576131bc612cae565b5b6131c98482850161315b565b91505092915050565b6000602082840312156131e8576131e7612ca9565b5b60006131f684828501612eff565b91505092915050565b61320881612e29565b82525050565b600060208201905061322360008301846131ff565b92915050565b600061323482612e8c565b9050919050565b61324481613229565b82525050565b600060208201905061325f600083018461323b565b92915050565b61326e81612d38565b811461327957600080fd5b50565b60008135905061328b81613265565b92915050565b600080604083850312156132a8576132a7612ca9565b5b60006132b685828601612eff565b92505060206132c78582860161327c565b9150509250929050565b600067ffffffffffffffff8211156132ec576132eb61305e565b5b6132f582612dbd565b9050602081019050919050565b6000613315613310846132d1565b6130be565b90508281526020810184848401111561333157613330613059565b5b61333c84828561310a565b509392505050565b600082601f83011261335957613358612f54565b5b8135613369848260208601613302565b91505092915050565b6000806000806080858703121561338c5761338b612ca9565b5b600061339a87828801612eff565b94505060206133ab87828801612eff565b93505060406133bc87828801612e4a565b925050606085013567ffffffffffffffff8111156133dd576133dc612cae565b5b6133e987828801613344565b91505092959194509250565b6000806000806040858703121561340f5761340e612ca9565b5b600085013567ffffffffffffffff81111561342d5761342c612cae565b5b61343987828801612f63565b9450945050602085013567ffffffffffffffff81111561345c5761345b612cae565b5b61346887828801612f63565b925092505092959194509250565b6000806040838503121561348d5761348c612ca9565b5b600061349b85828601612eff565b92505060206134ac85828601612eff565b9150509250929050565b600081519050919050565b600082825260208201905092915050565b6000819050602082019050919050565b600082825260208201905092915050565b60006134fe82612d6e565b61350881856134e2565b9350613518818560208601612d8a565b61352181612dbd565b840191505092915050565b600061353883836134f3565b905092915050565b6000602082019050919050565b6000613558826134b6565b61356281856134c1565b935083602082028501613574856134d2565b8060005b858110156135b05784840389528151613591858261352c565b945061359c83613540565b925060208a01995050600181019050613578565b50829750879550505050505092915050565b600060208201905081810360008301526135dc818461354d565b905092915050565b7f4e487b7100000000000000000000000000000000000000000000000000000000600052602260045260246000fd5b6000600282049050600182168061362b57607f821691505b6020821081141561363f5761363e6135e4565b5b50919050565b7f4552433732313a20617070726f76616c20746f2063757272656e74206f776e6560008201527f7200000000000000000000000000000000000000000000000000000000000000602082015250565b60006136a1602183612d79565b91506136ac82613645565b604082019050919050565b600060208201905081810360008301526136d081613694565b9050919050565b7f4552433732313a20617070726f76652063616c6c6572206973206e6f7420746f60008201527f6b656e206f776e6572206e6f7220617070726f76656420666f7220616c6c0000602082015250565b6000613733603e83612d79565b915061373e826136d7565b604082019050919050565b6000602082019050818103600083015261376281613726565b9050919050565b600081905092915050565b60006137808385613769565b935061378d83858461310a565b82840190509392505050565b60006137a6828486613774565b91508190509392505050565b7f4552433732313a2063616c6c6572206973206e6f7420746f6b656e206f776e6560008201527f72206e6f7220617070726f766564000000000000000000000000000000000000602082015250565b600061380e602e83612d79565b9150613819826137b2565b604082019050919050565b6000602082019050818103600083015261383d81613801565b9050919050565b600081905092915050565b50565b600061385f600083613844565b915061386a8261384f565b600082019050919050565b600061388082613852565b9150819050919050565b7f4661696c656420746f207769746864726177204d617469630000000000000000600082015250565b60006138c0601883612d79565b91506138cb8261388a565b602082019050919050565b600060208201905081810360008301526138ef816138b3565b9050919050565b7f4552433732313a20696e76616c696420746f6b656e2049440000000000000000600082015250565b600061392c601883612d79565b9150613937826138f6565b602082019050919050565b6000602082019050818103600083015261395b8161391f565b9050919050565b7f4552433732313a2061646472657373207a65726f206973206e6f74206120766160008201527f6c6964206f776e65720000000000000000000000000000000000000000000000602082015250565b60006139be602983612d79565b91506139c982613962565b604082019050919050565b600060208201905081810360008301526139ed816139b1565b9050919050565b60006139ff82612d6e565b613a098185613769565b9350613a19818560208601612d8a565b80840191505092915050565b6000613a3182856139f4565b9150613a3d82846139f4565b91508190509392505050565b6000613a558385612d79565b9350613a6283858461310a565b613a6b83612dbd565b840190509392505050565b60006020820190508181036000830152613a91818486613a49565b90509392505050565b7f4e6f7420656e6f756768204d6174696320706169640000000000000000000000600082015250565b6000613ad0601583612d79565b9150613adb82613a9a565b602082019050919050565b60006020820190508181036000830152613aff81613ac3565b9050919050565b7f4e487b7100000000000000000000000000000000000000000000000000000000600052603260045260246000fd5b7f4e487b7100000000000000000000000000000000000000000000000000000000600052601160045260246000fd5b6000613b6f82612e29565b91507fffffffffffffffffffffffffffffffffffffffffffffffffffffffffffffffff821415613ba257613ba1613b35565b5b600182019050919050565b60006040820190508181036000830152613bc78185612dce565b90508181036020830152613bdb8184612dce565b90509392505050565b7f4552433732313a207472616e736665722066726f6d20696e636f72726563742060008201527f6f776e6572000000000000000000000000000000000000000000000000000000602082015250565b6000613c40602583612d79565b9150613c4b82613be4565b604082019050919050565b60006020820190508181036000830152613c6f81613c33565b9050919050565b7f4552433732313a207472616e7366657220746f20746865207a65726f2061646460008201527f7265737300000000000000000000000000000000000000000000000000000000602082015250565b6000613cd2602483612d79565b9150613cdd82613c76565b604082019050919050565b60006020820190508181036000830152613d0181613cc5565b9050919050565b6000613d1382612e29565b9150613d1e83612e29565b925082821015613d3157613d30613b35565b5b828203905092915050565b6000613d4782612e29565b9150613d5283612e29565b9250827fffffffffffffffffffffffffffffffffffffffffffffffffffffffffffffffff03821115613d8757613d86613b35565b5b828201905092915050565b7f4552433732313a20617070726f766520746f2063616c6c657200000000000000600082015250565b6000613dc8601983612d79565b9150613dd382613d92565b602082019050919050565b60006020820190508181036000830152613df781613dbb565b9050919050565b7f4552433732313a207472616e7366657220746f206e6f6e20455243373231526560008201527f63656976657220696d706c656d656e7465720000000000000000000000000000602082015250565b6000613e5a603283612d79565b9150613e6582613dfe565b604082019050919050565b60006020820190508181036000830152613e8981613e4d565b9050919050565b60006080820190508181036000830152613eaa8187612dce565b90508181036020830152613ebe8186612dce565b90508181036040830152613ed28185612dce565b9050613ee160608301846131ff565b95945050505050565b7f45524337323155524953746f726167653a2055524920736574206f66206e6f6e60008201527f6578697374656e7420746f6b656e000000000000000000000000000000000000602082015250565b6000613f46602e83612d79565b9150613f5182613eea565b604082019050919050565b60006020820190508181036000830152613f7581613f39565b9050919050565b60006060820190508181036000830152613f968186612dce565b9050613fa560208301856131ff565b8181036040830152613fb78184612dce565b9050949350505050565b600081519050919050565b600082825260208201905092915050565b6000613fe882613fc1565b613ff28185613fcc565b9350614002818560208601612d8a565b61400b81612dbd565b840191505092915050565b600060808201905061402b6000830187612ebe565b6140386020830186612ebe565b61404560408301856131ff565b81810360608301526140578184613fdd565b905095945050505050565b60008151905061407181612cdf565b92915050565b60006020828403121561408d5761408c612ca9565b5b600061409b84828501614062565b91505092915050565b7f4e487b7100000000000000000000000000000000000000000000000000000000600052601260045260246000fd5b60006140de82612e29565b91506140e983612e29565b9250826140f9576140f86140a4565b5b828204905092915050565b600061410f82612e29565b915061411a83612e29565b92508261412a576141296140a4565b5b828206905092915050565b7f4552433732313a206d696e7420746f20746865207a65726f2061646472657373600082015250565b600061416b602083612d79565b915061417682614135565b602082019050919050565b6000602082019050818103600083015261419a8161415e565b9050919050565b7f4552433732313a20746f6b656e20616c7265616479206d696e74656400000000600082015250565b60006141d7601c83612d79565b91506141e2826141a1565b602082019050919050565b60006020820190508181036000830152614206816141ca565b905091905056fe5265676973746572696e672025732e2573206f6e2074686520636f6e7472616374207769746820746f6b656e4944202564697066733a2f2f516d54337774506355557057546f53384c356e7346667661733456504c687872644e785a4a4c6a6e385556385375a264697066735822122097409db1b32b4401ef5e327049dcf00ebfd934a872fb9b171dbd3192fe2bd39064736f6c634300080a00333c73766720786d6c6e733d22687474703a2f2f7777772e77332e6f72672f323030302f7376672220786d6c3a73706163653d227072657365727665222076696577426f783d223020302039352e38353620313030222076657273696f6e3d22312e30223e3c7061746820643d224d34372e38382031322e32313463332e333436203020362e3130312d322e373320362e3130312d362e3038394335332e39383120322e37332035312e32323620302034372e38382030632d332e33373120302d362e31303220322e37332d362e31303220362e3132352e30303120332e33353920322e37333120362e30383920362e31303220362e3038396d392e37343920312e39374833382e303333632d342e33323420302d372e38303520332e35342d372e38303520372e3933385633362e3734633020332e36333720342e38303920332e36333720342e38303920305632322e36323968342e39397631372e37383463322e3534392e36313620352e31353820312e30373520372e39313320312e30373520322e3733203020352e3331352d2e34353920372e3835332d312e3035315632322e36323968342e3935345633362e3734633020332e36363120342e38303920332e36363120342e38303920305632322e323036632d2e3030312d342e3032332d332e3136362d382e3032322d372e3932372d382e3032326d31332e3336332033312e3933326134302e3835382034302e3835382030203020312d32332e31343820372e313532632d382e35323920302d31362e3433322d322e3630392d32332e3032372d372e3033316c2d352e31373120372e36383463382e30343620352e3436312031372e373620382e3632362032382e31393820382e3632362031302e35313220302032302e3237332d332e3230312032382e3334342d382e3639386c2d352e3139362d372e3733337a222f3e3c7061746820643d224d38302e3837352036312e393636632d392e33393920362e3430342d32302e3735362031302e3132352d33322e3938322031302e3132352d31322e31373920302d32332e3438372d332e3638362d33322e3836322d31302e3031366c2d352e323220372e3532376331302e383520372e3336392032332e3937312031312e36372033382e3038322031312e36372031342e31333520302032372e3235362d342e3332352033382e3135342d31312e3639346c2d352e3137322d372e3631327a222f3e3c7061746820643d224d39302e3638352037372e363835632d31322e32323720382e332d32362e3934322031332e3133332d34322e3831372031332e3133332d31352e38353120302d33302e3536372d342e3833332d34322e3736392d31332e3039374c302038352e3335374331332e36342039342e3539392033302e313332203130302034372e383638203130306138352e31372038352e31372030203020302034372e3938382d31342e3733396c2d352e3137312d372e3537367a222f3e",
  "linkReferences": {},
  "deployedLinkReferences": {}
}